{
	"_format": "hh-sol-artifact-1",
	"contractName": "Cafereum",
	"sourceName": "contracts/Cafereum.sol",
	"abi": [
		{
			"inputs": [
				{
					"internalType": "uint256",
					"name": "singleCoffeePrice",
					"type": "uint256"
				},
				{
					"internalType": "uint256",
					"name": "doubleCoffeePrice",
					"type": "uint256"
				},
				{
					"internalType": "uint256",
					"name": "singleEspressoPrice",
					"type": "uint256"
				},
				{
					"internalType": "uint256",
					"name": "doubleEspressoPrice",
					"type": "uint256"
				}
			],
			"stateMutability": "nonpayable",
			"type": "constructor"
		},
		{
			"anonymous": false,
			"inputs": [
				{
					"indexed": false,
					"internalType": "string",
					"name": "productType",
					"type": "string"
				},
				{
					"indexed": false,
					"internalType": "string",
					"name": "productStrength",
					"type": "string"
				}
			],
			"name": "ProductPurchased",
			"type": "event"
		},
		{
			"inputs": [
				{
					"internalType": "string",
					"name": "productType",
					"type": "string"
				},
				{
					"internalType": "string",
					"name": "productStrength",
					"type": "string"
				}
			],
			"name": "buyProduct",
			"outputs": [],
			"stateMutability": "payable",
			"type": "function"
		},
		{
			"inputs": [],
			"name": "getBalance",
			"outputs": [
				{
					"internalType": "uint256",
					"name": "",
					"type": "uint256"
				}
			],
			"stateMutability": "view",
			"type": "function"
		},
		{
			"inputs": [],
			"name": "getProductNamesAndPrices",
			"outputs": [
				{
					"internalType": "string[]",
					"name": "",
					"type": "string[]"
				},
				{
					"internalType": "uint256[]",
					"name": "",
					"type": "uint256[]"
				}
			],
			"stateMutability": "view",
			"type": "function"
		},
		{
			"inputs": [
				{
					"internalType": "string",
					"name": "productType",
					"type": "string"
				}
			],
			"name": "getProductPrice",
			"outputs": [
				{
					"internalType": "uint256",
					"name": "",
					"type": "uint256"
				}
			],
			"stateMutability": "view",
			"type": "function"
		},
		{
			"inputs": [],
			"name": "owner",
			"outputs": [
				{
					"internalType": "address payable",
					"name": "",
					"type": "address"
				}
			],
			"stateMutability": "view",
			"type": "function"
		},
		{
			"inputs": [
				{
					"internalType": "string",
					"name": "",
					"type": "string"
				}
			],
			"name": "productPrices",
			"outputs": [
				{
					"internalType": "uint256",
					"name": "",
					"type": "uint256"
				}
			],
			"stateMutability": "view",
			"type": "function"
		},
		{
			"inputs": [
				{
					"internalType": "string",
					"name": "productType",
					"type": "string"
				},
				{
					"internalType": "uint256",
					"name": "price",
					"type": "uint256"
				}
			],
			"name": "setProductPrice",
			"outputs": [],
			"stateMutability": "nonpayable",
			"type": "function"
		},
		{
			"inputs": [],
			"name": "withdraw",
			"outputs": [],
			"stateMutability": "nonpayable",
			"type": "function"
		}
	],
	"bytecode": "0x608060405234801561001057600080fd5b50604051611c78380380611c788339818101604052810190610032919061027e565b336000806101000a81548173ffffffffffffffffffffffffffffffffffffffff021916908373ffffffffffffffffffffffffffffffffffffffff1602179055506100818461023760201b60201c565b6100c0576040517f08c379a00000000000000000000000000000000000000000000000000000000081526004016100b790610368565b60405180910390fd5b6100cf8361023760201b60201c565b61010e576040517f08c379a0000000000000000000000000000000000000000000000000000000008152600401610105906103fa565b60405180910390fd5b61011d8261023760201b60201c565b61015c576040517f08c379a00000000000000000000000000000000000000000000000000000000081526004016101539061048c565b60405180910390fd5b61016b8161023760201b60201c565b6101aa576040517f08c379a00000000000000000000000000000000000000000000000000000000081526004016101a19061051e565b60405180910390fd5b8360016040516101b990610595565b9081526020016040518091039020819055508260016040516101da906105f6565b9081526020016040518091039020819055508160016040516101fb90610657565b90815260200160405180910390208190555080600160405161021c906106b8565b908152602001604051809103902081905550505050506106cd565b60008082119050919050565b600080fd5b6000819050919050565b61025b81610248565b811461026657600080fd5b50565b60008151905061027881610252565b92915050565b6000806000806080858703121561029857610297610243565b5b60006102a687828801610269565b94505060206102b787828801610269565b93505060406102c887828801610269565b92505060606102d987828801610269565b91505092959194509250565b600082825260208201905092915050565b7f53696e676c65436f666665652070726963652073686f756c642062652067726560008201527f61746572207468616e207a65726f000000000000000000000000000000000000602082015250565b6000610352602e836102e5565b915061035d826102f6565b604082019050919050565b6000602082019050818103600083015261038181610345565b9050919050565b7f446f75626c65436f666665652070726963652073686f756c642062652067726560008201527f61746572207468616e207a65726f000000000000000000000000000000000000602082015250565b60006103e4602e836102e5565b91506103ef82610388565b604082019050919050565b60006020820190508181036000830152610413816103d7565b9050919050565b7f53696e676c65457370726573736f2070726963652073686f756c64206265206760008201527f726561746572207468616e207a65726f00000000000000000000000000000000602082015250565b60006104766030836102e5565b91506104818261041a565b604082019050919050565b600060208201905081810360008301526104a581610469565b9050919050565b7f446f75626c65457370726573736f2070726963652073686f756c64206265206760008201527f726561746572207468616e207a65726f00000000000000000000000000000000602082015250565b60006105086030836102e5565b9150610513826104ac565b604082019050919050565b60006020820190508181036000830152610537816104fb565b9050919050565b600081905092915050565b7f53696e676c65436f666665650000000000000000000000000000000000000000600082015250565b600061057f600c8361053e565b915061058a82610549565b600c82019050919050565b60006105a082610572565b9150819050919050565b7f446f75626c65436f666665650000000000000000000000000000000000000000600082015250565b60006105e0600c8361053e565b91506105eb826105aa565b600c82019050919050565b6000610601826105d3565b9150819050919050565b7f53696e676c65457370726573736f000000000000000000000000000000000000600082015250565b6000610641600e8361053e565b915061064c8261060b565b600e82019050919050565b600061066282610634565b9150819050919050565b7f446f75626c65457370726573736f000000000000000000000000000000000000600082015250565b60006106a2600e8361053e565b91506106ad8261066c565b600e82019050919050565b60006106c382610695565b9150819050919050565b61159c806106dc6000396000f3fe60806040526004361061007b5760003560e01c80636256b8e41161004e5780636256b8e41461012b578063694caedf146101475780638da5cb5b14610184578063dc4b6e7b146101af5761007b565b8063086aa172146100805780630dfa1c77146100bd57806312065fe0146100e95780633ccfd60b14610114575b600080fd5b34801561008c57600080fd5b506100a760048036038101906100a29190610cb4565b6101d8565b6040516100b49190610d16565b60405180910390f35b3480156100c957600080fd5b506100d2610206565b6040516100e0929190610f30565b60405180910390f35b3480156100f557600080fd5b506100fe6104fe565b60405161010b9190610d16565b60405180910390f35b34801561012057600080fd5b50610129610506565b005b61014560048036038101906101409190610f67565b610603565b005b34801561015357600080fd5b5061016e60048036038101906101699190610cb4565b610730565b60405161017b9190610d16565b60405180910390f35b34801561019057600080fd5b50610199610758565b6040516101a69190611020565b60405180910390f35b3480156101bb57600080fd5b506101d660048036038101906101d19190611067565b61077c565b005b6001818051602081018201805184825260208301602085012081835280955050505050506000915090505481565b6060806000600467ffffffffffffffff81111561022657610225610b89565b5b60405190808252806020026020018201604052801561025957816020015b60608152602001906001900390816102445790505b5090506000600467ffffffffffffffff81111561027957610278610b89565b5b6040519080825280602002602001820160405280156102a75781602001602082028036833780820191505090505b5090506040518060400160405280600c81526020017f53696e676c65436f666665650000000000000000000000000000000000000000815250826000815181106102f4576102f36110c3565b5b60200260200101819052506040518060400160405280600c81526020017f446f75626c65436f66666565000000000000000000000000000000000000000081525082600181518110610349576103486110c3565b5b60200260200101819052506040518060400160405280600e81526020017f53696e676c65457370726573736f0000000000000000000000000000000000008152508260028151811061039e5761039d6110c3565b5b60200260200101819052506040518060400160405280600e81526020017f446f75626c65457370726573736f000000000000000000000000000000000000815250826003815181106103f3576103f26110c3565b5b6020026020010181905250600160405161040c90611149565b9081526020016040518091039020548160008151811061042f5761042e6110c3565b5b6020026020010181815250506001604051610449906111aa565b9081526020016040518091039020548160018151811061046c5761046b6110c3565b5b60200260200101818152505060016040516104869061120b565b908152602001604051809103902054816002815181106104a9576104a86110c3565b5b60200260200101818152505060016040516104c39061126c565b908152602001604051809103902054816003815181106104e6576104e56110c3565b5b60200260200101818152505081819350935050509091565b600047905090565b60008054906101000a900473ffffffffffffffffffffffffffffffffffffffff1673ffffffffffffffffffffffffffffffffffffffff163373ffffffffffffffffffffffffffffffffffffffff1614610594576040517f08c379a000000000000000000000000000000000000000000000000000000000815260040161058b906112de565b60405180910390fd5b600047905060008054906101000a900473ffffffffffffffffffffffffffffffffffffffff1673ffffffffffffffffffffffffffffffffffffffff166108fc829081150290604051600060405180830381858888f193505050501580156105ff573d6000803e3d6000fd5b5050565b61060c826108c1565b61064b576040517f08c379a00000000000000000000000000000000000000000000000000000000081526004016106429061134a565b60405180910390fd5b610654816109db565b610693576040517f08c379a000000000000000000000000000000000000000000000000000000000815260040161068a906113b6565b60405180910390fd5b6001826040516106a39190611407565b90815260200160405180910390205434146106f3576040517f08c379a00000000000000000000000000000000000000000000000000000000081526004016106ea9061146a565b60405180910390fd5b7f530bfe02c23952f427d14753978f80ea284ba09b0709b6766f20706422d45e2682826040516107249291906114c3565b60405180910390a15050565b60006001826040516107429190611407565b9081526020016040518091039020549050919050565b60008054906101000a900473ffffffffffffffffffffffffffffffffffffffff1681565b60008054906101000a900473ffffffffffffffffffffffffffffffffffffffff1673ffffffffffffffffffffffffffffffffffffffff163373ffffffffffffffffffffffffffffffffffffffff161461080a576040517f08c379a0000000000000000000000000000000000000000000000000000000008152600401610801906112de565b60405180910390fd5b610813826108c1565b610852576040517f08c379a00000000000000000000000000000000000000000000000000000000081526004016108499061134a565b60405180910390fd5b61085b81610af5565b61089a576040517f08c379a000000000000000000000000000000000000000000000000000000000815260040161089190611546565b60405180910390fd5b806001836040516108ab9190611407565b9081526020016040518091039020819055505050565b6000610902826040518060400160405280600c81526020017f53696e676c65436f666665650000000000000000000000000000000000000000815250610b01565b806109485750610947826040518060400160405280600c81526020017f446f75626c65436f666665650000000000000000000000000000000000000000815250610b01565b5b8061098e575061098d826040518060400160405280600e81526020017f53696e676c65457370726573736f000000000000000000000000000000000000815250610b01565b5b806109d457506109d3826040518060400160405280600e81526020017f446f75626c65457370726573736f000000000000000000000000000000000000815250610b01565b5b9050919050565b6000610a1c826040518060400160405280600481526020017f4d696c6400000000000000000000000000000000000000000000000000000000815250610b01565b80610a625750610a61826040518060400160405280600681526020017f4e6f726d616c0000000000000000000000000000000000000000000000000000815250610b01565b5b80610aa85750610aa7826040518060400160405280600681526020017f5374726f6e670000000000000000000000000000000000000000000000000000815250610b01565b5b80610aee5750610aed826040518060400160405280600581526020017f4578747261000000000000000000000000000000000000000000000000000000815250610b01565b5b9050919050565b60008082119050919050565b600081604051602001610b149190611407565b6040516020818303038152906040528051906020012083604051602001610b3b9190611407565b6040516020818303038152906040528051906020012014905092915050565b6000604051905090565b600080fd5b600080fd5b600080fd5b600080fd5b6000601f19601f8301169050919050565b7f4e487b7100000000000000000000000000000000000000000000000000000000600052604160045260246000fd5b610bc182610b78565b810181811067ffffffffffffffff82111715610be057610bdf610b89565b5b80604052505050565b6000610bf3610b5a565b9050610bff8282610bb8565b919050565b600067ffffffffffffffff821115610c1f57610c1e610b89565b5b610c2882610b78565b9050602081019050919050565b82818337600083830152505050565b6000610c57610c5284610c04565b610be9565b905082815260208101848484011115610c7357610c72610b73565b5b610c7e848285610c35565b509392505050565b600082601f830112610c9b57610c9a610b6e565b5b8135610cab848260208601610c44565b91505092915050565b600060208284031215610cca57610cc9610b64565b5b600082013567ffffffffffffffff811115610ce857610ce7610b69565b5b610cf484828501610c86565b91505092915050565b6000819050919050565b610d1081610cfd565b82525050565b6000602082019050610d2b6000830184610d07565b92915050565b600081519050919050565b600082825260208201905092915050565b6000819050602082019050919050565b600081519050919050565b600082825260208201905092915050565b60005b83811015610d97578082015181840152602081019050610d7c565b60008484015250505050565b6000610dae82610d5d565b610db88185610d68565b9350610dc8818560208601610d79565b610dd181610b78565b840191505092915050565b6000610de88383610da3565b905092915050565b6000602082019050919050565b6000610e0882610d31565b610e128185610d3c565b935083602082028501610e2485610d4d565b8060005b85811015610e605784840389528151610e418582610ddc565b9450610e4c83610df0565b925060208a01995050600181019050610e28565b50829750879550505050505092915050565b600081519050919050565b600082825260208201905092915050565b6000819050602082019050919050565b610ea781610cfd565b82525050565b6000610eb98383610e9e565b60208301905092915050565b6000602082019050919050565b6000610edd82610e72565b610ee78185610e7d565b9350610ef283610e8e565b8060005b83811015610f23578151610f0a8882610ead565b9750610f1583610ec5565b925050600181019050610ef6565b5085935050505092915050565b60006040820190508181036000830152610f4a8185610dfd565b90508181036020830152610f5e8184610ed2565b90509392505050565b60008060408385031215610f7e57610f7d610b64565b5b600083013567ffffffffffffffff811115610f9c57610f9b610b69565b5b610fa885828601610c86565b925050602083013567ffffffffffffffff811115610fc957610fc8610b69565b5b610fd585828601610c86565b9150509250929050565b600073ffffffffffffffffffffffffffffffffffffffff82169050919050565b600061100a82610fdf565b9050919050565b61101a81610fff565b82525050565b60006020820190506110356000830184611011565b92915050565b61104481610cfd565b811461104f57600080fd5b50565b6000813590506110618161103b565b92915050565b6000806040838503121561107e5761107d610b64565b5b600083013567ffffffffffffffff81111561109c5761109b610b69565b5b6110a885828601610c86565b92505060206110b985828601611052565b9150509250929050565b7f4e487b7100000000000000000000000000000000000000000000000000000000600052603260045260246000fd5b600081905092915050565b7f53696e676c65436f666665650000000000000000000000000000000000000000600082015250565b6000611133600c836110f2565b915061113e826110fd565b600c82019050919050565b600061115482611126565b9150819050919050565b7f446f75626c65436f666665650000000000000000000000000000000000000000600082015250565b6000611194600c836110f2565b915061119f8261115e565b600c82019050919050565b60006111b582611187565b9150819050919050565b7f53696e676c65457370726573736f000000000000000000000000000000000000600082015250565b60006111f5600e836110f2565b9150611200826111bf565b600e82019050919050565b6000611216826111e8565b9150819050919050565b7f446f75626c65457370726573736f000000000000000000000000000000000000600082015250565b6000611256600e836110f2565b915061126182611220565b600e82019050919050565b600061127782611249565b9150819050919050565b600082825260208201905092915050565b7f596f7520617265206e6f7420746865206f776e65720000000000000000000000600082015250565b60006112c8601583611281565b91506112d382611292565b602082019050919050565b600060208201905081810360008301526112f7816112bb565b9050919050565b7f496e76616c69642070726f647563742074797065000000000000000000000000600082015250565b6000611334601483611281565b915061133f826112fe565b602082019050919050565b6000602082019050818103600083015261136381611327565b9050919050565b7f496e76616c69642070726f6475637420737472656e6774680000000000000000600082015250565b60006113a0601883611281565b91506113ab8261136a565b602082019050919050565b600060208201905081810360008301526113cf81611393565b9050919050565b60006113e182610d5d565b6113eb81856110f2565b93506113fb818560208601610d79565b80840191505092915050565b600061141382846113d6565b915081905092915050565b7f496e636f727265637420616d6f756e742073656e740000000000000000000000600082015250565b6000611454601583611281565b915061145f8261141e565b602082019050919050565b6000602082019050818103600083015261148381611447565b9050919050565b600061149582610d5d565b61149f8185611281565b93506114af818560208601610d79565b6114b881610b78565b840191505092915050565b600060408201905081810360008301526114dd818561148a565b905081810360208301526114f1818461148a565b90509392505050565b7f5072696365206d7573742062652067726561746572207468616e207a65726f00600082015250565b6000611530601f83611281565b915061153b826114fa565b602082019050919050565b6000602082019050818103600083015261155f81611523565b905091905056fea2646970667358221220eece81bc6b85570062ad8f399f5afc6f4cd7a2a6136d5f97df89854d47bada4164736f6c634300081c0033",
	"linkReferences": {},
	"deployedLinkReferences": {}
}